{
  "contracts/Demo.sol": {
    "Demo": {
      "abi": [
        {
          "inputs": [
            {
              "internalType": "address",
              "name": "_permit2",
              "type": "address"
            }
          ],
          "stateMutability": "nonpayable",
          "type": "constructor"
        },
        {
          "inputs": [
            {
              "internalType": "address",
              "name": "spender",
              "type": "address"
            }
          ],
          "name": "InvalidSpender",
          "type": "error"
        },
        {
          "inputs": [],
          "name": "permit2",
          "outputs": [
            {
              "internalType": "contract IAllowanceTransfer",
              "name": "",
              "type": "address"
            }
          ],
          "stateMutability": "view",
          "type": "function"
        },
        {
          "inputs": [
            {
              "components": [
                {
                  "components": [
                    {
                      "internalType": "address",
                      "name": "token",
                      "type": "address"
                    },
                    {
                      "internalType": "uint160",
                      "name": "amount",
                      "type": "uint160"
                    },
                    {
                      "internalType": "uint48",
                      "name": "expiration",
                      "type": "uint48"
                    },
                    {
                      "internalType": "uint48",
                      "name": "nonce",
                      "type": "uint48"
                    }
                  ],
                  "internalType": "struct IAllowanceTransfer.PermitDetails",
                  "name": "details",
                  "type": "tuple"
                },
                {
                  "internalType": "address",
                  "name": "spender",
                  "type": "address"
                },
                {
                  "internalType": "uint256",
                  "name": "sigDeadline",
                  "type": "uint256"
                }
              ],
              "internalType": "struct IAllowanceTransfer.PermitSingle",
              "name": "permitSingle",
              "type": "tuple"
            },
            {
              "internalType": "bytes",
              "name": "signature",
              "type": "bytes"
            },
            {
              "internalType": "uint160",
              "name": "amount",
              "type": "uint160"
            },
            {
              "internalType": "address",
              "name": "recipient",
              "type": "address"
            }
          ],
          "name": "permitAndTransferToOther",
          "outputs": [],
          "stateMutability": "nonpayable",
          "type": "function"
        },
        {
          "inputs": [
            {
              "components": [
                {
                  "components": [
                    {
                      "internalType": "address",
                      "name": "token",
                      "type": "address"
                    },
                    {
                      "internalType": "uint160",
                      "name": "amount",
                      "type": "uint160"
                    },
                    {
                      "internalType": "uint48",
                      "name": "expiration",
                      "type": "uint48"
                    },
                    {
                      "internalType": "uint48",
                      "name": "nonce",
                      "type": "uint48"
                    }
                  ],
                  "internalType": "struct IAllowanceTransfer.PermitDetails",
                  "name": "details",
                  "type": "tuple"
                },
                {
                  "internalType": "address",
                  "name": "spender",
                  "type": "address"
                },
                {
                  "internalType": "uint256",
                  "name": "sigDeadline",
                  "type": "uint256"
                }
              ],
              "internalType": "struct IAllowanceTransfer.PermitSingle",
              "name": "permitSingle",
              "type": "tuple"
            },
            {
              "internalType": "bytes",
              "name": "signature",
              "type": "bytes"
            }
          ],
          "name": "permitThroughPermit2",
          "outputs": [],
          "stateMutability": "nonpayable",
          "type": "function"
        },
        {
          "inputs": [
            {
              "internalType": "address",
              "name": "token",
              "type": "address"
            },
            {
              "internalType": "uint160",
              "name": "amount",
              "type": "uint160"
            },
            {
              "internalType": "address",
              "name": "recipient",
              "type": "address"
            }
          ],
          "name": "transferToOther",
          "outputs": [],
          "stateMutability": "nonpayable",
          "type": "function"
        }
      ],
      "evm": {
        "bytecode": {
          "linkReferences": {},
          "object": "60a060405234801561001057600080fd5b50604051610be5380380610be5833981810160405281019061003291906100cf565b8073ffffffffffffffffffffffffffffffffffffffff1660808173ffffffffffffffffffffffffffffffffffffffff1681525050506100fc565b600080fd5b600073ffffffffffffffffffffffffffffffffffffffff82169050919050565b600061009c82610071565b9050919050565b6100ac81610091565b81146100b757600080fd5b50565b6000815190506100c9816100a3565b92915050565b6000602082840312156100e5576100e461006c565b5b60006100f3848285016100ba565b91505092915050565b608051610ab36101326000396000818160c50152818161017d015281816102a70152818161033801526103e50152610ab36000f3fe608060405234801561001057600080fd5b506004361061004c5760003560e01c806312261ee7146100515780635a0585b01461006f578063692541641461008b578063a6ea2bf8146100a7575b600080fd5b6100596100c3565b60405161006691906104f8565b60405180910390f35b610089600480360381019061008491906105a6565b6100e7565b005b6100a560048036038101906100a09190610670565b610211565b005b6100c160048036038101906100bc91906106fa565b6103e3565b005b7f000000000000000000000000000000000000000000000000000000000000000081565b3073ffffffffffffffffffffffffffffffffffffffff16836080016020810190610111919061074d565b73ffffffffffffffffffffffffffffffffffffffff161461017b5782608001602081019061013f919061074d565b6040517f4e15efda0000000000000000000000000000000000000000000000000000000081526004016101729190610789565b60405180910390fd5b7f000000000000000000000000000000000000000000000000000000000000000073ffffffffffffffffffffffffffffffffffffffff16632b67b570338585856040518563ffffffff1660e01b81526004016101da94939291906109e8565b600060405180830381600087803b1580156101f457600080fd5b505af1158015610208573d6000803e3d6000fd5b50505050505050565b3073ffffffffffffffffffffffffffffffffffffffff1685608001602081019061023b919061074d565b73ffffffffffffffffffffffffffffffffffffffff16146102a557846080016020810190610269919061074d565b6040517f4e15efda00000000000000000000000000000000000000000000000000000000815260040161029c9190610789565b60405180910390fd5b7f000000000000000000000000000000000000000000000000000000000000000073ffffffffffffffffffffffffffffffffffffffff16632b67b570338787876040518563ffffffff1660e01b815260040161030494939291906109e8565b600060405180830381600087803b15801561031e57600080fd5b505af1158015610332573d6000803e3d6000fd5b505050507f000000000000000000000000000000000000000000000000000000000000000073ffffffffffffffffffffffffffffffffffffffff166336c7851633838589600001600001602081019061038b919061074d565b6040518563ffffffff1660e01b81526004016103aa9493929190610a38565b600060405180830381600087803b1580156103c457600080fd5b505af11580156103d8573d6000803e3d6000fd5b505050505050505050565b7f000000000000000000000000000000000000000000000000000000000000000073ffffffffffffffffffffffffffffffffffffffff166336c78516338385876040518563ffffffff1660e01b81526004016104429493929190610a38565b600060405180830381600087803b15801561045c57600080fd5b505af1158015610470573d6000803e3d6000fd5b50505050505050565b600073ffffffffffffffffffffffffffffffffffffffff82169050919050565b6000819050919050565b60006104be6104b96104b484610479565b610499565b610479565b9050919050565b60006104d0826104a3565b9050919050565b60006104e2826104c5565b9050919050565b6104f2816104d7565b82525050565b600060208201905061050d60008301846104e9565b92915050565b600080fd5b600080fd5b600080fd5b600060c082840312156105385761053761051d565b5b81905092915050565b600080fd5b600080fd5b600080fd5b60008083601f84011261056657610565610541565b5b8235905067ffffffffffffffff81111561058357610582610546565b5b60208301915083600182028301111561059f5761059e61054b565b5b9250929050565b600080600060e084860312156105bf576105be610513565b5b60006105cd86828701610522565b93505060c084013567ffffffffffffffff8111156105ee576105ed610518565b5b6105fa86828701610550565b92509250509250925092565b61060f81610479565b811461061a57600080fd5b50565b60008135905061062c81610606565b92915050565b600061063d82610479565b9050919050565b61064d81610632565b811461065857600080fd5b50565b60008135905061066a81610644565b92915050565b6000806000806000610120868803121561068d5761068c610513565b5b600061069b88828901610522565b95505060c086013567ffffffffffffffff8111156106bc576106bb610518565b5b6106c888828901610550565b945094505060e06106db8882890161061d565b9250506101006106ed8882890161065b565b9150509295509295909350565b60008060006060848603121561071357610712610513565b5b60006107218682870161065b565b93505060206107328682870161061d565b92505060406107438682870161065b565b9150509250925092565b60006020828403121561076357610762610513565b5b60006107718482850161065b565b91505092915050565b61078381610632565b82525050565b600060208201905061079e600083018461077a565b92915050565b600082905092915050565b60006107be602084018461065b565b905092915050565b6107cf81610632565b82525050565b60006107e4602084018461061d565b905092915050565b6107f581610479565b82525050565b600065ffffffffffff82169050919050565b610816816107fb565b811461082157600080fd5b50565b6000813590506108338161080d565b92915050565b60006108486020840184610824565b905092915050565b610859816107fb565b82525050565b6080820161087060008301836107af565b61087d60008501826107c6565b5061088b60208301836107d5565b61089860208501826107ec565b506108a66040830183610839565b6108b36040850182610850565b506108c16060830183610839565b6108ce6060850182610850565b50505050565b6000819050919050565b6108e7816108d4565b81146108f257600080fd5b50565b600081359050610904816108de565b92915050565b600061091960208401846108f5565b905092915050565b61092a816108d4565b82525050565b60c0820161094160008301836107a4565b61094e600085018261085f565b5061095c60808301836107af565b61096960808501826107c6565b5061097760a083018361090a565b61098460a0850182610921565b50505050565b600082825260208201905092915050565b82818337600083830152505050565b6000601f19601f8301169050919050565b60006109c7838561098a565b93506109d483858461099b565b6109dd836109aa565b840190509392505050565b6000610100820190506109fe600083018761077a565b610a0b6020830186610930565b81810360e0830152610a1e8184866109bb565b905095945050505050565b610a3281610479565b82525050565b6000608082019050610a4d600083018761077a565b610a5a602083018661077a565b610a676040830185610a29565b610a74606083018461077a565b9594505050505056fea264697066735822122001def22a5d393eaeccbd568698d6eb26b8396a16c8b2c7b0df3713ff86efafec64736f6c63430008180033",
          "opcodes": "PUSH1 0xA0 PUSH1 0x40 MSTORE CALLVALUE DUP1 ISZERO PUSH2 0x10 JUMPI PUSH1 0x0 DUP1 REVERT JUMPDEST POP PUSH1 0x40 MLOAD PUSH2 0xBE5 CODESIZE SUB DUP1 PUSH2 0xBE5 DUP4 CODECOPY DUP2 DUP2 ADD PUSH1 0x40 MSTORE DUP2 ADD SWAP1 PUSH2 0x32 SWAP2 SWAP1 PUSH2 0xCF JUMP JUMPDEST DUP1 PUSH20 0xFFFFFFFFFFFFFFFFFFFFFFFFFFFFFFFFFFFFFFFF AND PUSH1 0x80 DUP2 PUSH20 0xFFFFFFFFFFFFFFFFFFFFFFFFFFFFFFFFFFFFFFFF AND DUP2 MSTORE POP POP POP PUSH2 0xFC JUMP JUMPDEST PUSH1 0x0 DUP1 REVERT JUMPDEST PUSH1 0x0 PUSH20 0xFFFFFFFFFFFFFFFFFFFFFFFFFFFFFFFFFFFFFFFF DUP3 AND SWAP1 POP SWAP2 SWAP1 POP JUMP JUMPDEST PUSH1 0x0 PUSH2 0x9C DUP3 PUSH2 0x71 JUMP JUMPDEST SWAP1 POP SWAP2 SWAP1 POP JUMP JUMPDEST PUSH2 0xAC DUP2 PUSH2 0x91 JUMP JUMPDEST DUP2 EQ PUSH2 0xB7 JUMPI PUSH1 0x0 DUP1 REVERT JUMPDEST POP JUMP JUMPDEST PUSH1 0x0 DUP2 MLOAD SWAP1 POP PUSH2 0xC9 DUP2 PUSH2 0xA3 JUMP JUMPDEST SWAP3 SWAP2 POP POP JUMP JUMPDEST PUSH1 0x0 PUSH1 0x20 DUP3 DUP5 SUB SLT ISZERO PUSH2 0xE5 JUMPI PUSH2 0xE4 PUSH2 0x6C JUMP JUMPDEST JUMPDEST PUSH1 0x0 PUSH2 0xF3 DUP5 DUP3 DUP6 ADD PUSH2 0xBA JUMP JUMPDEST SWAP2 POP POP SWAP3 SWAP2 POP POP JUMP JUMPDEST PUSH1 0x80 MLOAD PUSH2 0xAB3 PUSH2 0x132 PUSH1 0x0 CODECOPY PUSH1 0x0 DUP2 DUP2 PUSH1 0xC5 ADD MSTORE DUP2 DUP2 PUSH2 0x17D ADD MSTORE DUP2 DUP2 PUSH2 0x2A7 ADD MSTORE DUP2 DUP2 PUSH2 0x338 ADD MSTORE PUSH2 0x3E5 ADD MSTORE PUSH2 0xAB3 PUSH1 0x0 RETURN INVALID PUSH1 0x80 PUSH1 0x40 MSTORE CALLVALUE DUP1 ISZERO PUSH2 0x10 JUMPI PUSH1 0x0 DUP1 REVERT JUMPDEST POP PUSH1 0x4 CALLDATASIZE LT PUSH2 0x4C JUMPI PUSH1 0x0 CALLDATALOAD PUSH1 0xE0 SHR DUP1 PUSH4 0x12261EE7 EQ PUSH2 0x51 JUMPI DUP1 PUSH4 0x5A0585B0 EQ PUSH2 0x6F JUMPI DUP1 PUSH4 0x69254164 EQ PUSH2 0x8B JUMPI DUP1 PUSH4 0xA6EA2BF8 EQ PUSH2 0xA7 JUMPI JUMPDEST PUSH1 0x0 DUP1 REVERT JUMPDEST PUSH2 0x59 PUSH2 0xC3 JUMP JUMPDEST PUSH1 0x40 MLOAD PUSH2 0x66 SWAP2 SWAP1 PUSH2 0x4F8 JUMP JUMPDEST PUSH1 0x40 MLOAD DUP1 SWAP2 SUB SWAP1 RETURN JUMPDEST PUSH2 0x89 PUSH1 0x4 DUP1 CALLDATASIZE SUB DUP2 ADD SWAP1 PUSH2 0x84 SWAP2 SWAP1 PUSH2 0x5A6 JUMP JUMPDEST PUSH2 0xE7 JUMP JUMPDEST STOP JUMPDEST PUSH2 0xA5 PUSH1 0x4 DUP1 CALLDATASIZE SUB DUP2 ADD SWAP1 PUSH2 0xA0 SWAP2 SWAP1 PUSH2 0x670 JUMP JUMPDEST PUSH2 0x211 JUMP JUMPDEST STOP JUMPDEST PUSH2 0xC1 PUSH1 0x4 DUP1 CALLDATASIZE SUB DUP2 ADD SWAP1 PUSH2 0xBC SWAP2 SWAP1 PUSH2 0x6FA JUMP JUMPDEST PUSH2 0x3E3 JUMP JUMPDEST STOP JUMPDEST PUSH32 0x0 DUP2 JUMP JUMPDEST ADDRESS PUSH20 0xFFFFFFFFFFFFFFFFFFFFFFFFFFFFFFFFFFFFFFFF AND DUP4 PUSH1 0x80 ADD PUSH1 0x20 DUP2 ADD SWAP1 PUSH2 0x111 SWAP2 SWAP1 PUSH2 0x74D JUMP JUMPDEST PUSH20 0xFFFFFFFFFFFFFFFFFFFFFFFFFFFFFFFFFFFFFFFF AND EQ PUSH2 0x17B JUMPI DUP3 PUSH1 0x80 ADD PUSH1 0x20 DUP2 ADD SWAP1 PUSH2 0x13F SWAP2 SWAP1 PUSH2 0x74D JUMP JUMPDEST PUSH1 0x40 MLOAD PUSH32 0x4E15EFDA00000000000000000000000000000000000000000000000000000000 DUP2 MSTORE PUSH1 0x4 ADD PUSH2 0x172 SWAP2 SWAP1 PUSH2 0x789 JUMP JUMPDEST PUSH1 0x40 MLOAD DUP1 SWAP2 SUB SWAP1 REVERT JUMPDEST PUSH32 0x0 PUSH20 0xFFFFFFFFFFFFFFFFFFFFFFFFFFFFFFFFFFFFFFFF AND PUSH4 0x2B67B570 CALLER DUP6 DUP6 DUP6 PUSH1 0x40 MLOAD DUP6 PUSH4 0xFFFFFFFF AND PUSH1 0xE0 SHL DUP2 MSTORE PUSH1 0x4 ADD PUSH2 0x1DA SWAP5 SWAP4 SWAP3 SWAP2 SWAP1 PUSH2 0x9E8 JUMP JUMPDEST PUSH1 0x0 PUSH1 0x40 MLOAD DUP1 DUP4 SUB DUP2 PUSH1 0x0 DUP8 DUP1 EXTCODESIZE ISZERO DUP1 ISZERO PUSH2 0x1F4 JUMPI PUSH1 0x0 DUP1 REVERT JUMPDEST POP GAS CALL ISZERO DUP1 ISZERO PUSH2 0x208 JUMPI RETURNDATASIZE PUSH1 0x0 DUP1 RETURNDATACOPY RETURNDATASIZE PUSH1 0x0 REVERT JUMPDEST POP POP POP POP POP POP POP JUMP JUMPDEST ADDRESS PUSH20 0xFFFFFFFFFFFFFFFFFFFFFFFFFFFFFFFFFFFFFFFF AND DUP6 PUSH1 0x80 ADD PUSH1 0x20 DUP2 ADD SWAP1 PUSH2 0x23B SWAP2 SWAP1 PUSH2 0x74D JUMP JUMPDEST PUSH20 0xFFFFFFFFFFFFFFFFFFFFFFFFFFFFFFFFFFFFFFFF AND EQ PUSH2 0x2A5 JUMPI DUP5 PUSH1 0x80 ADD PUSH1 0x20 DUP2 ADD SWAP1 PUSH2 0x269 SWAP2 SWAP1 PUSH2 0x74D JUMP JUMPDEST PUSH1 0x40 MLOAD PUSH32 0x4E15EFDA00000000000000000000000000000000000000000000000000000000 DUP2 MSTORE PUSH1 0x4 ADD PUSH2 0x29C SWAP2 SWAP1 PUSH2 0x789 JUMP JUMPDEST PUSH1 0x40 MLOAD DUP1 SWAP2 SUB SWAP1 REVERT JUMPDEST PUSH32 0x0 PUSH20 0xFFFFFFFFFFFFFFFFFFFFFFFFFFFFFFFFFFFFFFFF AND PUSH4 0x2B67B570 CALLER DUP8 DUP8 DUP8 PUSH1 0x40 MLOAD DUP6 PUSH4 0xFFFFFFFF AND PUSH1 0xE0 SHL DUP2 MSTORE PUSH1 0x4 ADD PUSH2 0x304 SWAP5 SWAP4 SWAP3 SWAP2 SWAP1 PUSH2 0x9E8 JUMP JUMPDEST PUSH1 0x0 PUSH1 0x40 MLOAD DUP1 DUP4 SUB DUP2 PUSH1 0x0 DUP8 DUP1 EXTCODESIZE ISZERO DUP1 ISZERO PUSH2 0x31E JUMPI PUSH1 0x0 DUP1 REVERT JUMPDEST POP GAS CALL ISZERO DUP1 ISZERO PUSH2 0x332 JUMPI RETURNDATASIZE PUSH1 0x0 DUP1 RETURNDATACOPY RETURNDATASIZE PUSH1 0x0 REVERT JUMPDEST POP POP POP POP PUSH32 0x0 PUSH20 0xFFFFFFFFFFFFFFFFFFFFFFFFFFFFFFFFFFFFFFFF AND PUSH4 0x36C78516 CALLER DUP4 DUP6 DUP10 PUSH1 0x0 ADD PUSH1 0x0 ADD PUSH1 0x20 DUP2 ADD SWAP1 PUSH2 0x38B SWAP2 SWAP1 PUSH2 0x74D JUMP JUMPDEST PUSH1 0x40 MLOAD DUP6 PUSH4 0xFFFFFFFF AND PUSH1 0xE0 SHL DUP2 MSTORE PUSH1 0x4 ADD PUSH2 0x3AA SWAP5 SWAP4 SWAP3 SWAP2 SWAP1 PUSH2 0xA38 JUMP JUMPDEST PUSH1 0x0 PUSH1 0x40 MLOAD DUP1 DUP4 SUB DUP2 PUSH1 0x0 DUP8 DUP1 EXTCODESIZE ISZERO DUP1 ISZERO PUSH2 0x3C4 JUMPI PUSH1 0x0 DUP1 REVERT JUMPDEST POP GAS CALL ISZERO DUP1 ISZERO PUSH2 0x3D8 JUMPI RETURNDATASIZE PUSH1 0x0 DUP1 RETURNDATACOPY RETURNDATASIZE PUSH1 0x0 REVERT JUMPDEST POP POP POP POP POP POP POP POP POP JUMP JUMPDEST PUSH32 0x0 PUSH20 0xFFFFFFFFFFFFFFFFFFFFFFFFFFFFFFFFFFFFFFFF AND PUSH4 0x36C78516 CALLER DUP4 DUP6 DUP8 PUSH1 0x40 MLOAD DUP6 PUSH4 0xFFFFFFFF AND PUSH1 0xE0 SHL DUP2 MSTORE PUSH1 0x4 ADD PUSH2 0x442 SWAP5 SWAP4 SWAP3 SWAP2 SWAP1 PUSH2 0xA38 JUMP JUMPDEST PUSH1 0x0 PUSH1 0x40 MLOAD DUP1 DUP4 SUB DUP2 PUSH1 0x0 DUP8 DUP1 EXTCODESIZE ISZERO DUP1 ISZERO PUSH2 0x45C JUMPI PUSH1 0x0 DUP1 REVERT JUMPDEST POP GAS CALL ISZERO DUP1 ISZERO PUSH2 0x470 JUMPI RETURNDATASIZE PUSH1 0x0 DUP1 RETURNDATACOPY RETURNDATASIZE PUSH1 0x0 REVERT JUMPDEST POP POP POP POP POP POP POP JUMP JUMPDEST PUSH1 0x0 PUSH20 0xFFFFFFFFFFFFFFFFFFFFFFFFFFFFFFFFFFFFFFFF DUP3 AND SWAP1 POP SWAP2 SWAP1 POP JUMP JUMPDEST PUSH1 0x0 DUP2 SWAP1 POP SWAP2 SWAP1 POP JUMP JUMPDEST PUSH1 0x0 PUSH2 0x4BE PUSH2 0x4B9 PUSH2 0x4B4 DUP5 PUSH2 0x479 JUMP JUMPDEST PUSH2 0x499 JUMP JUMPDEST PUSH2 0x479 JUMP JUMPDEST SWAP1 POP SWAP2 SWAP1 POP JUMP JUMPDEST PUSH1 0x0 PUSH2 0x4D0 DUP3 PUSH2 0x4A3 JUMP JUMPDEST SWAP1 POP SWAP2 SWAP1 POP JUMP JUMPDEST PUSH1 0x0 PUSH2 0x4E2 DUP3 PUSH2 0x4C5 JUMP JUMPDEST SWAP1 POP SWAP2 SWAP1 POP JUMP JUMPDEST PUSH2 0x4F2 DUP2 PUSH2 0x4D7 JUMP JUMPDEST DUP3 MSTORE POP POP JUMP JUMPDEST PUSH1 0x0 PUSH1 0x20 DUP3 ADD SWAP1 POP PUSH2 0x50D PUSH1 0x0 DUP4 ADD DUP5 PUSH2 0x4E9 JUMP JUMPDEST SWAP3 SWAP2 POP POP JUMP JUMPDEST PUSH1 0x0 DUP1 REVERT JUMPDEST PUSH1 0x0 DUP1 REVERT JUMPDEST PUSH1 0x0 DUP1 REVERT JUMPDEST PUSH1 0x0 PUSH1 0xC0 DUP3 DUP5 SUB SLT ISZERO PUSH2 0x538 JUMPI PUSH2 0x537 PUSH2 0x51D JUMP JUMPDEST JUMPDEST DUP2 SWAP1 POP SWAP3 SWAP2 POP POP JUMP JUMPDEST PUSH1 0x0 DUP1 REVERT JUMPDEST PUSH1 0x0 DUP1 REVERT JUMPDEST PUSH1 0x0 DUP1 REVERT JUMPDEST PUSH1 0x0 DUP1 DUP4 PUSH1 0x1F DUP5 ADD SLT PUSH2 0x566 JUMPI PUSH2 0x565 PUSH2 0x541 JUMP JUMPDEST JUMPDEST DUP3 CALLDATALOAD SWAP1 POP PUSH8 0xFFFFFFFFFFFFFFFF DUP2 GT ISZERO PUSH2 0x583 JUMPI PUSH2 0x582 PUSH2 0x546 JUMP JUMPDEST JUMPDEST PUSH1 0x20 DUP4 ADD SWAP2 POP DUP4 PUSH1 0x1 DUP3 MUL DUP4 ADD GT ISZERO PUSH2 0x59F JUMPI PUSH2 0x59E PUSH2 0x54B JUMP JUMPDEST JUMPDEST SWAP3 POP SWAP3 SWAP1 POP JUMP JUMPDEST PUSH1 0x0 DUP1 PUSH1 0x0 PUSH1 0xE0 DUP5 DUP7 SUB SLT ISZERO PUSH2 0x5BF JUMPI PUSH2 0x5BE PUSH2 0x513 JUMP JUMPDEST JUMPDEST PUSH1 0x0 PUSH2 0x5CD DUP7 DUP3 DUP8 ADD PUSH2 0x522 JUMP JUMPDEST SWAP4 POP POP PUSH1 0xC0 DUP5 ADD CALLDATALOAD PUSH8 0xFFFFFFFFFFFFFFFF DUP2 GT ISZERO PUSH2 0x5EE JUMPI PUSH2 0x5ED PUSH2 0x518 JUMP JUMPDEST JUMPDEST PUSH2 0x5FA DUP7 DUP3 DUP8 ADD PUSH2 0x550 JUMP JUMPDEST SWAP3 POP SWAP3 POP POP SWAP3 POP SWAP3 POP SWAP3 JUMP JUMPDEST PUSH2 0x60F DUP2 PUSH2 0x479 JUMP JUMPDEST DUP2 EQ PUSH2 0x61A JUMPI PUSH1 0x0 DUP1 REVERT JUMPDEST POP JUMP JUMPDEST PUSH1 0x0 DUP2 CALLDATALOAD SWAP1 POP PUSH2 0x62C DUP2 PUSH2 0x606 JUMP JUMPDEST SWAP3 SWAP2 POP POP JUMP JUMPDEST PUSH1 0x0 PUSH2 0x63D DUP3 PUSH2 0x479 JUMP JUMPDEST SWAP1 POP SWAP2 SWAP1 POP JUMP JUMPDEST PUSH2 0x64D DUP2 PUSH2 0x632 JUMP JUMPDEST DUP2 EQ PUSH2 0x658 JUMPI PUSH1 0x0 DUP1 REVERT JUMPDEST POP JUMP JUMPDEST PUSH1 0x0 DUP2 CALLDATALOAD SWAP1 POP PUSH2 0x66A DUP2 PUSH2 0x644 JUMP JUMPDEST SWAP3 SWAP2 POP POP JUMP JUMPDEST PUSH1 0x0 DUP1 PUSH1 0x0 DUP1 PUSH1 0x0 PUSH2 0x120 DUP7 DUP9 SUB SLT ISZERO PUSH2 0x68D JUMPI PUSH2 0x68C PUSH2 0x513 JUMP JUMPDEST JUMPDEST PUSH1 0x0 PUSH2 0x69B DUP9 DUP3 DUP10 ADD PUSH2 0x522 JUMP JUMPDEST SWAP6 POP POP PUSH1 0xC0 DUP7 ADD CALLDATALOAD PUSH8 0xFFFFFFFFFFFFFFFF DUP2 GT ISZERO PUSH2 0x6BC JUMPI PUSH2 0x6BB PUSH2 0x518 JUMP JUMPDEST JUMPDEST PUSH2 0x6C8 DUP9 DUP3 DUP10 ADD PUSH2 0x550 JUMP JUMPDEST SWAP5 POP SWAP5 POP POP PUSH1 0xE0 PUSH2 0x6DB DUP9 DUP3 DUP10 ADD PUSH2 0x61D JUMP JUMPDEST SWAP3 POP POP PUSH2 0x100 PUSH2 0x6ED DUP9 DUP3 DUP10 ADD PUSH2 0x65B JUMP JUMPDEST SWAP2 POP POP SWAP3 SWAP6 POP SWAP3 SWAP6 SWAP1 SWAP4 POP JUMP JUMPDEST PUSH1 0x0 DUP1 PUSH1 0x0 PUSH1 0x60 DUP5 DUP7 SUB SLT ISZERO PUSH2 0x713 JUMPI PUSH2 0x712 PUSH2 0x513 JUMP JUMPDEST JUMPDEST PUSH1 0x0 PUSH2 0x721 DUP7 DUP3 DUP8 ADD PUSH2 0x65B JUMP JUMPDEST SWAP4 POP POP PUSH1 0x20 PUSH2 0x732 DUP7 DUP3 DUP8 ADD PUSH2 0x61D JUMP JUMPDEST SWAP3 POP POP PUSH1 0x40 PUSH2 0x743 DUP7 DUP3 DUP8 ADD PUSH2 0x65B JUMP JUMPDEST SWAP2 POP POP SWAP3 POP SWAP3 POP SWAP3 JUMP JUMPDEST PUSH1 0x0 PUSH1 0x20 DUP3 DUP5 SUB SLT ISZERO PUSH2 0x763 JUMPI PUSH2 0x762 PUSH2 0x513 JUMP JUMPDEST JUMPDEST PUSH1 0x0 PUSH2 0x771 DUP5 DUP3 DUP6 ADD PUSH2 0x65B JUMP JUMPDEST SWAP2 POP POP SWAP3 SWAP2 POP POP JUMP JUMPDEST PUSH2 0x783 DUP2 PUSH2 0x632 JUMP JUMPDEST DUP3 MSTORE POP POP JUMP JUMPDEST PUSH1 0x0 PUSH1 0x20 DUP3 ADD SWAP1 POP PUSH2 0x79E PUSH1 0x0 DUP4 ADD DUP5 PUSH2 0x77A JUMP JUMPDEST SWAP3 SWAP2 POP POP JUMP JUMPDEST PUSH1 0x0 DUP3 SWAP1 POP SWAP3 SWAP2 POP POP JUMP JUMPDEST PUSH1 0x0 PUSH2 0x7BE PUSH1 0x20 DUP5 ADD DUP5 PUSH2 0x65B JUMP JUMPDEST SWAP1 POP SWAP3 SWAP2 POP POP JUMP JUMPDEST PUSH2 0x7CF DUP2 PUSH2 0x632 JUMP JUMPDEST DUP3 MSTORE POP POP JUMP JUMPDEST PUSH1 0x0 PUSH2 0x7E4 PUSH1 0x20 DUP5 ADD DUP5 PUSH2 0x61D JUMP JUMPDEST SWAP1 POP SWAP3 SWAP2 POP POP JUMP JUMPDEST PUSH2 0x7F5 DUP2 PUSH2 0x479 JUMP JUMPDEST DUP3 MSTORE POP POP JUMP JUMPDEST PUSH1 0x0 PUSH6 0xFFFFFFFFFFFF DUP3 AND SWAP1 POP SWAP2 SWAP1 POP JUMP JUMPDEST PUSH2 0x816 DUP2 PUSH2 0x7FB JUMP JUMPDEST DUP2 EQ PUSH2 0x821 JUMPI PUSH1 0x0 DUP1 REVERT JUMPDEST POP JUMP JUMPDEST PUSH1 0x0 DUP2 CALLDATALOAD SWAP1 POP PUSH2 0x833 DUP2 PUSH2 0x80D JUMP JUMPDEST SWAP3 SWAP2 POP POP JUMP JUMPDEST PUSH1 0x0 PUSH2 0x848 PUSH1 0x20 DUP5 ADD DUP5 PUSH2 0x824 JUMP JUMPDEST SWAP1 POP SWAP3 SWAP2 POP POP JUMP JUMPDEST PUSH2 0x859 DUP2 PUSH2 0x7FB JUMP JUMPDEST DUP3 MSTORE POP POP JUMP JUMPDEST PUSH1 0x80 DUP3 ADD PUSH2 0x870 PUSH1 0x0 DUP4 ADD DUP4 PUSH2 0x7AF JUMP JUMPDEST PUSH2 0x87D PUSH1 0x0 DUP6 ADD DUP3 PUSH2 0x7C6 JUMP JUMPDEST POP PUSH2 0x88B PUSH1 0x20 DUP4 ADD DUP4 PUSH2 0x7D5 JUMP JUMPDEST PUSH2 0x898 PUSH1 0x20 DUP6 ADD DUP3 PUSH2 0x7EC JUMP JUMPDEST POP PUSH2 0x8A6 PUSH1 0x40 DUP4 ADD DUP4 PUSH2 0x839 JUMP JUMPDEST PUSH2 0x8B3 PUSH1 0x40 DUP6 ADD DUP3 PUSH2 0x850 JUMP JUMPDEST POP PUSH2 0x8C1 PUSH1 0x60 DUP4 ADD DUP4 PUSH2 0x839 JUMP JUMPDEST PUSH2 0x8CE PUSH1 0x60 DUP6 ADD DUP3 PUSH2 0x850 JUMP JUMPDEST POP POP POP POP JUMP JUMPDEST PUSH1 0x0 DUP2 SWAP1 POP SWAP2 SWAP1 POP JUMP JUMPDEST PUSH2 0x8E7 DUP2 PUSH2 0x8D4 JUMP JUMPDEST DUP2 EQ PUSH2 0x8F2 JUMPI PUSH1 0x0 DUP1 REVERT JUMPDEST POP JUMP JUMPDEST PUSH1 0x0 DUP2 CALLDATALOAD SWAP1 POP PUSH2 0x904 DUP2 PUSH2 0x8DE JUMP JUMPDEST SWAP3 SWAP2 POP POP JUMP JUMPDEST PUSH1 0x0 PUSH2 0x919 PUSH1 0x20 DUP5 ADD DUP5 PUSH2 0x8F5 JUMP JUMPDEST SWAP1 POP SWAP3 SWAP2 POP POP JUMP JUMPDEST PUSH2 0x92A DUP2 PUSH2 0x8D4 JUMP JUMPDEST DUP3 MSTORE POP POP JUMP JUMPDEST PUSH1 0xC0 DUP3 ADD PUSH2 0x941 PUSH1 0x0 DUP4 ADD DUP4 PUSH2 0x7A4 JUMP JUMPDEST PUSH2 0x94E PUSH1 0x0 DUP6 ADD DUP3 PUSH2 0x85F JUMP JUMPDEST POP PUSH2 0x95C PUSH1 0x80 DUP4 ADD DUP4 PUSH2 0x7AF JUMP JUMPDEST PUSH2 0x969 PUSH1 0x80 DUP6 ADD DUP3 PUSH2 0x7C6 JUMP JUMPDEST POP PUSH2 0x977 PUSH1 0xA0 DUP4 ADD DUP4 PUSH2 0x90A JUMP JUMPDEST PUSH2 0x984 PUSH1 0xA0 DUP6 ADD DUP3 PUSH2 0x921 JUMP JUMPDEST POP POP POP POP JUMP JUMPDEST PUSH1 0x0 DUP3 DUP3 MSTORE PUSH1 0x20 DUP3 ADD SWAP1 POP SWAP3 SWAP2 POP POP JUMP JUMPDEST DUP3 DUP2 DUP4 CALLDATACOPY PUSH1 0x0 DUP4 DUP4 ADD MSTORE POP POP POP JUMP JUMPDEST PUSH1 0x0 PUSH1 0x1F NOT PUSH1 0x1F DUP4 ADD AND SWAP1 POP SWAP2 SWAP1 POP JUMP JUMPDEST PUSH1 0x0 PUSH2 0x9C7 DUP4 DUP6 PUSH2 0x98A JUMP JUMPDEST SWAP4 POP PUSH2 0x9D4 DUP4 DUP6 DUP5 PUSH2 0x99B JUMP JUMPDEST PUSH2 0x9DD DUP4 PUSH2 0x9AA JUMP JUMPDEST DUP5 ADD SWAP1 POP SWAP4 SWAP3 POP POP POP JUMP JUMPDEST PUSH1 0x0 PUSH2 0x100 DUP3 ADD SWAP1 POP PUSH2 0x9FE PUSH1 0x0 DUP4 ADD DUP8 PUSH2 0x77A JUMP JUMPDEST PUSH2 0xA0B PUSH1 0x20 DUP4 ADD DUP7 PUSH2 0x930 JUMP JUMPDEST DUP2 DUP2 SUB PUSH1 0xE0 DUP4 ADD MSTORE PUSH2 0xA1E DUP2 DUP5 DUP7 PUSH2 0x9BB JUMP JUMPDEST SWAP1 POP SWAP6 SWAP5 POP POP POP POP POP JUMP JUMPDEST PUSH2 0xA32 DUP2 PUSH2 0x479 JUMP JUMPDEST DUP3 MSTORE POP POP JUMP JUMPDEST PUSH1 0x0 PUSH1 0x80 DUP3 ADD SWAP1 POP PUSH2 0xA4D PUSH1 0x0 DUP4 ADD DUP8 PUSH2 0x77A JUMP JUMPDEST PUSH2 0xA5A PUSH1 0x20 DUP4 ADD DUP7 PUSH2 0x77A JUMP JUMPDEST PUSH2 0xA67 PUSH1 0x40 DUP4 ADD DUP6 PUSH2 0xA29 JUMP JUMPDEST PUSH2 0xA74 PUSH1 0x60 DUP4 ADD DUP5 PUSH2 0x77A JUMP JUMPDEST SWAP6 SWAP5 POP POP POP POP POP JUMP INVALID LOG2 PUSH5 0x6970667358 0x22 SLT KECCAK256 ADD 0xDE CALLCODE 0x2A TSTORE CODECOPY RETURNDATACOPY 0xAE 0xCC 0xBD JUMP DUP7 SWAP9 0xD6 0xEB 0x26 0xB8 CODECOPY PUSH11 0x16C8B2C7B0DF3713FF86EF 0xAF 0xEC PUSH5 0x736F6C6343 STOP ADDMOD XOR STOP CALLER "
        },
        "methodIdentifiers": {
          "permit2()": "12261ee7",
          "permitAndTransferToOther(((address,uint160,uint48,uint48),address,uint256),bytes,uint160,address)": "69254164",
          "permitThroughPermit2(((address,uint160,uint48,uint48),address,uint256),bytes)": "5a0585b0",
          "transferToOther(address,uint160,address)": "a6ea2bf8"
        }
      }
    }
  }
}